:020000020000FC
:10000000F89404E01FE50EBF1DBF00E011E000BD45
:1000100019B906E818E100BD1AB940E031E037BB74
:1000200038BBF2E1E0E0D2E0C0E053E00591099393
:10003000D513FCCFF1E0E0ED0590159025903590BB
:10004000459055906590759085909590A590B59048
:10005000C590D590E590F590D0E0C0E6C1D0B1E074
:10006000A0E255E65F9BFECF0CB10D935A95D1F7F8
:10007000B1E0A0E25F9BFECF0CB05F9BFECF1CB057
:100080005F9BFECF2CB05F9BFECF3CB05F9BFECF53
:100090004CB05F9BFECF5CB05F9BFECF6CB05F9BB4
:1000A000FECF7CB05F9BFECF8CB05F9BFECF9CB041
:1000B0005F9BFECFACB05F9BFECFBCB05F9BFECF23
:1000C000CCB05F9BFECFDCB05F9BFECFECB05F9B04
:1000D000FECFFCB00F9200244F9244248F928824CC
:1000E000CF92CC241F9211245F9255249F92992481
:1000F000DF92DD242F9222246F926624AF92AA24ED
:10010000EF92EE243F9233247F927724BF92BB2458
:10011000FF92FF2448BBD1E0C0E195D0D1E0C0E11F
:1001200092D0D1E0C0E18FD0FF90BF907F903F9000
:10013000EF90AF906F902F90DF909F905F901F9007
:10014000CF908F904F900F90D0E0C0E67CD07BD0C6
:100150007AD079D00F9200244F9244248F92882431
:10016000CF92CC241F9211245F9255249F92992400
:10017000DF92DD242F9222246F926624AF92AA246C
:10018000EF92EE243F9233247F927724BF92BB24D8
:10019000FF92FF24D1E0C0E156D0D1E0C0E153D0BE
:1001A000D1E0C0E150D038BBFF90BF907F903F902E
:1001B000EF90AF906F902F90DF909F905F901F9087
:1001C000CF908F904F900F905D9BFECF3CB947CF63
:1001D0002B7E151628AED2A6ABF7158809CF4F3C5B
:1001E00001E01BE1F0E11CC0ED2D24910226002668
:1001F000EE2D24911226EF2D24912226EC2D249110
:100200003226402451246224732484249524A62475
:10021000B724C824D924EA24FB24000F08F40127BA
:100220000992199229923992499259926992799236
:1002300089929992A992B992C992D992E992F99226
:100240000C3691F60895099100260991102609911E
:1002500020260991302609914026099150260991BE
:1002600060260991702609918026099190260991AE
:10027000A0260991B0260991C0260991D02609919E
:10028000E0260991F026F0E1E02D0490E42D449061
:10029000E82D8490EC2DC490012DE52D1490E92DCE
:1002A0005490ED2D9490E02FD490022DEA2D2490BF
:1002B000E02FA490062DEE2D6490E02FE4900F2DFA
:1002C000EB2DF490E72DB490E32D7490E02F349053
:1002D000F1E1002D012502250325102D202D2125DA
:1002E000E22F249102260026212D2225E22F24919F
:1002F00012261026222D2325E22F249122262026A5
:10030000232D2127E22F249132263026F1E1042DDE
:10031000052506250725142D242D2525E22F2491BA
:1003200042264026252D2625E22F249152265026AE
:10033000262D2725E22F249162266026272D2127AE
:10034000E22F249172267026F1E1082D09250A2555
:100350000B25182D282D2925E22F24918226802671
:10036000292D2A25E22F2491922690262A2D2B250D
:10037000E22F2491A226A0262B2D2127E22F2491C3
:10038000B226B026F1E10C2D0D250E250F251C2DD2
:100390002C2D2D25E22F2491C226C0262D2D2E2571
:1003A000E22F2491D226D0262E2D2F25E22F249124
:1003B000E226E0262F2D2127E22F2491F226F02697
:1003C00008958D918723882321F0000000008A95ED
:1003D000F1F708957FE008958D918723860F882394
:1003E00021F0000000008A95F1F708958D91682FA3
:1003F0007FE0672373E008955FE0561B652F089543
:100400008D918723860F869586958695882321F082
:10041000000000008A95F1F708958D91682F7FE71D
:1004200067237FE108955FE7561B652F08958D913F
:10043000F2E0E82F8081882321F0000000008A95F7
:04044000F1F7089533
:10100000637C777BF26B6FC53001672BFED7AB76C5
:10101000CA82C97DFA5947F0ADD4A2AF9CA472C070
:10102000B7FD9326363FF7CC34A5E5F171D83115DD
:1010300004C723C31896059A071280E2EB27B275FE
:1010400009832C1A1B6E5AA0523BD6B329E32F8476
:1010500053D100ED20FCB15B6ACBBE394A4C58CF6E
:10106000D0EFAAFB434D338545F9027F503C9FA842
:1010700051A3408F929D38F5BCB6DA2110FFF3D210
:10108000CD0C13EC5F974417C4A77E3D645D1973C4
:1010900060814FDC222A908846EEB814DE5E0BDBBE
:1010A000E0323A0A4906245CC2D3AC629195E479F5
:1010B000E7C8376D8DD54EA96C56F4EA657AAE084F
:1010C000BA78252E1CA6B4C6E8DD741F4BBD8B8AEA
:1010D000703EB5664803F60E613557B986C11D9E50
:1010E000E1F8981169D98E949B1E87E9CE5528DFC7
:1010F0008CA1890DBFE6426841992D0FB054BB16F3
:1011000000020406080A0C0E10121416181A1C1EEF
:1011100020222426282A2C2E30323436383A3C3EDF
:1011200040424446484A4C4E50525456585A5C5ECF
:1011300060626466686A6C6E70727476787A7C7EBF
:1011400080828486888A8C8E90929496989A9C9EAF
:10115000A0A2A4A6A8AAACAEB0B2B4B6B8BABCBE9F
:10116000C0C2C4C6C8CACCCED0D2D4D6D8DADCDE8F
:10117000E0E2E4E6E8EAECEEF0F2F4F6F8FAFCFE7F
:101180001B191F1D131117150B090F0D030107055F
:101190003B393F3D333137352B292F2D232127254F
:1011A0005B595F5D535157554B494F4D434147453F
:1011B0007B797F7D737177756B696F6D636167652F
:1011C0009B999F9D939197958B898F8D838187851F
:1011D000BBB9BFBDB3B1B7B5ABA9AFADA3A1A7A50F
:1011E000DBD9DFDDD3D1D7D5CBC9CFCDC3C1C7C5FF
:1011F000FBF9FFFDF3F1F7F5EBE9EFEDE3E1E7E5EF
:1012000000000000000000000000000000000000DE
:1012100000000000000000000000000000000000CE
:1012200000000000000000000001010101010101B7
:10123000010101010101010101010101010101019E
:101240000101010101010202020202020202020284
:101250000202020202020202020203030303030368
:101260000303030303030303040404040404040446
:101270000404050505050505050606060606060718
:101280000707070808080909090A0A0A0B0B0B0CCB
:101290000C0C0C0D0D0D0D0D0E0E0E0E0E0E0F0F77
:1012A0000F0F0F0F0F0F0F10101010101010101045
:1012B0001010101111111111111111111111111121
:1012C0001111111112121212121212121212121202
:1012D00012121212121212121212121213131313EA
:1012E00013131313131313131313131313131313CE
:1012F00013131313131313131313131313131313BE
:00000001FF
